{
  "contractName": "DogenMasterDog",
  "abi": [
    {
      "inputs": [
        {
          "internalType": "contract DogenToken",
          "name": "_dogenToken",
          "type": "address"
        },
        {
          "internalType": "address",
          "name": "_devAddr",
          "type": "address"
        },
        {
          "internalType": "address",
          "name": "_founderAddr",
          "type": "address"
        },
        {
          "internalType": "address",
          "name": "_communityAddr",
          "type": "address"
        },
        {
          "internalType": "uint256",
          "name": "_rewardPerBlock",
          "type": "uint256"
        },
        {
          "internalType": "uint256",
          "name": "_startBlock",
          "type": "uint256"
        },
        {
          "internalType": "uint256",
          "name": "_bonusEndBlock",
          "type": "uint256"
        }
      ],
      "stateMutability": "nonpayable",
      "type": "constructor"
    },
    {
      "anonymous": false,
      "inputs": [
        {
          "indexed": true,
          "internalType": "address",
          "name": "user",
          "type": "address"
        },
        {
          "indexed": true,
          "internalType": "uint256",
          "name": "pid",
          "type": "uint256"
        },
        {
          "indexed": false,
          "internalType": "uint256",
          "name": "amount",
          "type": "uint256"
        }
      ],
      "name": "Deposit",
      "type": "event"
    },
    {
      "anonymous": false,
      "inputs": [
        {
          "indexed": true,
          "internalType": "address",
          "name": "user",
          "type": "address"
        },
        {
          "indexed": true,
          "internalType": "uint256",
          "name": "pid",
          "type": "uint256"
        },
        {
          "indexed": false,
          "internalType": "uint256",
          "name": "amount",
          "type": "uint256"
        }
      ],
      "name": "EmergencyWithdraw",
      "type": "event"
    },
    {
      "anonymous": false,
      "inputs": [
        {
          "indexed": true,
          "internalType": "address",
          "name": "previousOwner",
          "type": "address"
        },
        {
          "indexed": true,
          "internalType": "address",
          "name": "newOwner",
          "type": "address"
        }
      ],
      "name": "OwnershipTransferred",
      "type": "event"
    },
    {
      "anonymous": false,
      "inputs": [
        {
          "indexed": true,
          "internalType": "address",
          "name": "user",
          "type": "address"
        },
        {
          "indexed": true,
          "internalType": "uint256",
          "name": "pid",
          "type": "uint256"
        },
        {
          "indexed": false,
          "internalType": "uint256",
          "name": "amount",
          "type": "uint256"
        }
      ],
      "name": "Withdraw",
      "type": "event"
    },
    {
      "inputs": [],
      "name": "BONUS_MULTIPLIER",
      "outputs": [
        {
          "internalType": "uint256",
          "name": "",
          "type": "uint256"
        }
      ],
      "stateMutability": "view",
      "type": "function"
    },
    {
      "inputs": [],
      "name": "bonusEndBlock",
      "outputs": [
        {
          "internalType": "uint256",
          "name": "",
          "type": "uint256"
        }
      ],
      "stateMutability": "view",
      "type": "function"
    },
    {
      "inputs": [],
      "name": "communityAddr",
      "outputs": [
        {
          "internalType": "address",
          "name": "",
          "type": "address"
        }
      ],
      "stateMutability": "view",
      "type": "function"
    },
    {
      "inputs": [],
      "name": "devAddr",
      "outputs": [
        {
          "internalType": "address",
          "name": "",
          "type": "address"
        }
      ],
      "stateMutability": "view",
      "type": "function"
    },
    {
      "inputs": [],
      "name": "dogenToken",
      "outputs": [
        {
          "internalType": "contract DogenToken",
          "name": "",
          "type": "address"
        }
      ],
      "stateMutability": "view",
      "type": "function"
    },
    {
      "inputs": [],
      "name": "founderAddr",
      "outputs": [
        {
          "internalType": "address",
          "name": "",
          "type": "address"
        }
      ],
      "stateMutability": "view",
      "type": "function"
    },
    {
      "inputs": [],
      "name": "owner",
      "outputs": [
        {
          "internalType": "address",
          "name": "",
          "type": "address"
        }
      ],
      "stateMutability": "view",
      "type": "function"
    },
    {
      "inputs": [
        {
          "internalType": "uint256",
          "name": "",
          "type": "uint256"
        }
      ],
      "name": "poolInfo",
      "outputs": [
        {
          "internalType": "contract IERC20",
          "name": "lpToken",
          "type": "address"
        },
        {
          "internalType": "uint256",
          "name": "allocPoint",
          "type": "uint256"
        },
        {
          "internalType": "uint256",
          "name": "lastRewardBlock",
          "type": "uint256"
        },
        {
          "internalType": "uint256",
          "name": "accRewardPerShare",
          "type": "uint256"
        }
      ],
      "stateMutability": "view",
      "type": "function"
    },
    {
      "inputs": [],
      "name": "renounceOwnership",
      "outputs": [],
      "stateMutability": "nonpayable",
      "type": "function"
    },
    {
      "inputs": [],
      "name": "rewardPerBlock",
      "outputs": [
        {
          "internalType": "uint256",
          "name": "",
          "type": "uint256"
        }
      ],
      "stateMutability": "view",
      "type": "function"
    },
    {
      "inputs": [],
      "name": "startBlock",
      "outputs": [
        {
          "internalType": "uint256",
          "name": "",
          "type": "uint256"
        }
      ],
      "stateMutability": "view",
      "type": "function"
    },
    {
      "inputs": [],
      "name": "totalAllocPoint",
      "outputs": [
        {
          "internalType": "uint256",
          "name": "",
          "type": "uint256"
        }
      ],
      "stateMutability": "view",
      "type": "function"
    },
    {
      "inputs": [
        {
          "internalType": "address",
          "name": "newOwner",
          "type": "address"
        }
      ],
      "name": "transferOwnership",
      "outputs": [],
      "stateMutability": "nonpayable",
      "type": "function"
    },
    {
      "inputs": [
        {
          "internalType": "uint256",
          "name": "",
          "type": "uint256"
        },
        {
          "internalType": "address",
          "name": "",
          "type": "address"
        }
      ],
      "name": "userInfo",
      "outputs": [
        {
          "internalType": "uint256",
          "name": "amount",
          "type": "uint256"
        },
        {
          "internalType": "uint256",
          "name": "rewardDebt",
          "type": "uint256"
        }
      ],
      "stateMutability": "view",
      "type": "function"
    },
    {
      "inputs": [],
      "name": "poolLength",
      "outputs": [
        {
          "internalType": "uint256",
          "name": "",
          "type": "uint256"
        }
      ],
      "stateMutability": "view",
      "type": "function"
    },
    {
      "inputs": [
        {
          "internalType": "uint256",
          "name": "_allocPoint",
          "type": "uint256"
        },
        {
          "internalType": "contract IERC20",
          "name": "_lpToken",
          "type": "address"
        },
        {
          "internalType": "bool",
          "name": "_withUpdate",
          "type": "bool"
        }
      ],
      "name": "add",
      "outputs": [],
      "stateMutability": "nonpayable",
      "type": "function"
    },
    {
      "inputs": [
        {
          "internalType": "uint256",
          "name": "_pid",
          "type": "uint256"
        },
        {
          "internalType": "uint256",
          "name": "_allocPoint",
          "type": "uint256"
        },
        {
          "internalType": "bool",
          "name": "_withUpdate",
          "type": "bool"
        }
      ],
      "name": "set",
      "outputs": [],
      "stateMutability": "nonpayable",
      "type": "function"
    },
    {
      "inputs": [
        {
          "internalType": "uint256",
          "name": "_from",
          "type": "uint256"
        },
        {
          "internalType": "uint256",
          "name": "_to",
          "type": "uint256"
        }
      ],
      "name": "getMultiplier",
      "outputs": [
        {
          "internalType": "uint256",
          "name": "",
          "type": "uint256"
        }
      ],
      "stateMutability": "view",
      "type": "function"
    },
    {
      "inputs": [
        {
          "internalType": "uint256",
          "name": "_pid",
          "type": "uint256"
        },
        {
          "internalType": "address",
          "name": "_user",
          "type": "address"
        }
      ],
      "name": "pendingRewards",
      "outputs": [
        {
          "internalType": "uint256",
          "name": "",
          "type": "uint256"
        }
      ],
      "stateMutability": "view",
      "type": "function"
    },
    {
      "inputs": [],
      "name": "massUpdatePools",
      "outputs": [],
      "stateMutability": "nonpayable",
      "type": "function"
    },
    {
      "inputs": [
        {
          "internalType": "uint256",
          "name": "_pid",
          "type": "uint256"
        }
      ],
      "name": "updatePool",
      "outputs": [],
      "stateMutability": "nonpayable",
      "type": "function"
    },
    {
      "inputs": [
        {
          "internalType": "uint256",
          "name": "_pid",
          "type": "uint256"
        },
        {
          "internalType": "uint256",
          "name": "_amount",
          "type": "uint256"
        }
      ],
      "name": "deposit",
      "outputs": [],
      "stateMutability": "nonpayable",
      "type": "function"
    },
    {
      "inputs": [
        {
          "internalType": "uint256",
          "name": "_pid",
          "type": "uint256"
        },
        {
          "internalType": "uint256",
          "name": "_amount",
          "type": "uint256"
        }
      ],
      "name": "withdraw",
      "outputs": [],
      "stateMutability": "nonpayable",
      "type": "function"
    },
    {
      "inputs": [
        {
          "internalType": "uint256",
          "name": "_pid",
          "type": "uint256"
        }
      ],
      "name": "emergencyWithdraw",
      "outputs": [],
      "stateMutability": "nonpayable",
      "type": "function"
    },
    {
      "inputs": [
        {
          "internalType": "address",
          "name": "_devAddr",
          "type": "address"
        }
      ],
      "name": "dev",
      "outputs": [],
      "stateMutability": "nonpayable",
      "type": "function"
    },
    {
      "inputs": [
        {
          "internalType": "address",
          "name": "_founderAddr",
          "type": "address"
        }
      ],
      "name": "founder",
      "outputs": [],
      "stateMutability": "nonpayable",
      "type": "function"
    },
    {
      "inputs": [
        {
          "internalType": "address",
          "name": "_communityAddr",
          "type": "address"
        }
      ],
      "name": "community",
      "outputs": [],
      "stateMutability": "nonpayable",
      "type": "function"
    },
    {
      "inputs": [
        {
          "internalType": "uint256",
          "name": "_rewardPerBlock",
          "type": "uint256"
        }
      ],
      "name": "updateRewardPerBlock",
      "outputs": [],
      "stateMutability": "nonpayable",
      "type": "function"
    }
  ],
  "bytecode": "0x6080604052600060095534801561001557600080fd5b50604051611c6f380380611c6f833981810160405260e081101561003857600080fd5b508051602082015160408301516060840151608085015160a086015160c0909601519495939492939192909190600061006f61011b565b600080546001600160a01b0319166001600160a01b0383169081178255604051929350917f8be0079c531659141344cd1fd0a4f28419497f9722a3daafe3b4186f6b6457e0908290a350600180546001600160a01b03199081166001600160a01b03998a16179091556002805482169789169790971790965560038054871695881695909517909455600480549095169290951691909117909255600691909155600555600a5561011f565b3390565b611b418061012e6000396000f3fe608060405234801561001057600080fd5b50600436106101c45760003560e01c8063715018a6116100f9578063c9b5e55511610097578063e2bbb15811610071578063e2bbb1581461045f578063f2fde38b14610482578063f53352b2146104a8578063f97065ef146104ce576101c4565b8063c9b5e55514610423578063d18df53c1461042b578063da09c72c14610457576101c4565b80638d88a90e116100d35780638d88a90e1461038d5780638da5cb5b146103b35780638dbb1e3a146103bb57806393f1a40b146103de576101c4565b8063715018a6146103755780638aa285501461037d5780638ae39cac14610385576101c4565b8063441a3e70116101665780635312ea8e116101405780635312ea8e146102ff5780635f2086811461031c578063630b5ba11461034257806364482f791461034a576101c4565b8063441a3e70146102b757806348cd4cb1146102da57806351eb05a6146102e2576101c4565b80631526fe27116101a25780631526fe271461022657806317caf6f1146102735780631aed65531461027b5780631eaaa04514610283576101c4565b806301f8a976146101c9578063081e3eda146101e857806311c4d4f414610202575b600080fd5b6101e6600480360360208110156101df57600080fd5b50356104d6565b005b6101f0610531565b60408051918252519081900360200190f35b61020a610537565b604080516001600160a01b039092168252519081900360200190f35b6102436004803603602081101561023c57600080fd5b5035610546565b604080516001600160a01b0390951685526020850193909352838301919091526060830152519081900360800190f35b6101f0610587565b6101f061058d565b6101e66004803603606081101561029957600080fd5b508035906001600160a01b0360208201351690604001351515610593565b6101e6600480360360408110156102cd57600080fd5b508035906020013561070e565b6101f0610861565b6101e6600480360360208110156102f857600080fd5b5035610867565b6101e66004803603602081101561031557600080fd5b5035610ba0565b6101e66004803603602081101561033257600080fd5b50356001600160a01b0316610c3b565b6101e6610ca8565b6101e66004803603606081101561036057600080fd5b50803590602081013590604001351515610ccb565b6101e6610d9c565b6101f0610e3e565b6101f0610e43565b6101e6600480360360208110156103a357600080fd5b50356001600160a01b0316610e49565b61020a610eb6565b6101f0600480360360408110156103d157600080fd5b5080359060200135610ec5565b61040a600480360360408110156103f457600080fd5b50803590602001356001600160a01b0316610f31565b6040805192835260208301919091528051918290030190f35b61020a610f55565b6101f06004803603604081101561044157600080fd5b50803590602001356001600160a01b0316610f64565b61020a6110c6565b6101e66004803603604081101561047557600080fd5b50803590602001356110d5565b6101e66004803603602081101561049857600080fd5b50356001600160a01b03166111da565b6101e6600480360360208110156104be57600080fd5b50356001600160a01b03166112d2565b61020a61133f565b6002546001600160a01b03163314610521576040805162461bcd60e51b81526020600482015260096024820152686465763a207775743f60b81b604482015290519081900360640190fd5b600681905561052e610ca8565b50565b60075490565b6004546001600160a01b031681565b6007818154811061055357fe5b600091825260209091206004909102018054600182015460028301546003909301546001600160a01b039092169350919084565b60095481565b60055481565b61059b61134e565b6000546001600160a01b039081169116146105eb576040805162461bcd60e51b81526020600482018190526024820152600080516020611ac2833981519152604482015290519081900360640190fd5b80156105f9576105f9610ca8565b6000600a54431161060c57600a5461060e565b435b60095490915061061e9085611352565b600955604080516080810182526001600160a01b0394851681526020810195865290810191825260006060820181815260078054600181018255925291517fa66cc928b5edb82af9bd49922954155ab7b0942694bea4ce44661d9a8736c688600490920291820180546001600160a01b031916919096161790945593517fa66cc928b5edb82af9bd49922954155ab7b0942694bea4ce44661d9a8736c689840155517fa66cc928b5edb82af9bd49922954155ab7b0942694bea4ce44661d9a8736c68a8301555090517fa66cc928b5edb82af9bd49922954155ab7b0942694bea4ce44661d9a8736c68b90910155565b60006007838154811061071d57fe5b600091825260208083208684526008825260408085203386529092529220805460049092029092019250831115610790576040805162461bcd60e51b81526020600482015260126024820152711dda5d1a191c985dce881b9bdd0819dbdbd960721b604482015290519081900360640190fd5b61079984610867565b60006107d382600101546107cd64e8d4a510006107c7876003015487600001546113b390919063ffffffff16565b9061140c565b9061144e565b90506107df3382611490565b81546107eb908561144e565b80835560038401546108089164e8d4a51000916107c791906113b3565b60018301558254610823906001600160a01b03163386611621565b604080518581529051869133917ff279e6a1f5e320cca91135676d9cb6e44ca8a08c0b88342bcdb1144f6511b5689181900360200190a35050505050565b600a5481565b60006007828154811061087657fe5b9060005260206000209060040201905080600201544311610897575061052e565b8054604080516370a0823160e01b815230600482015290516000926001600160a01b0316916370a08231916024808301926020929190829003018186803b1580156108e157600080fd5b505afa1580156108f5573d6000803e3d6000fd5b505050506040513d602081101561090b57600080fd5b505190508061092157504360029091015561052e565b6000610931836002015443610ec5565b9050600061095e6009546107c78660010154610958600654876113b390919063ffffffff16565b906113b3565b6001546002549192506001600160a01b03908116916340c10f19911661098a60076109588660c861140c565b6040518363ffffffff1660e01b815260040180836001600160a01b0316815260200182815260200192505050600060405180830381600087803b1580156109d057600080fd5b505af11580156109e4573d6000803e3d6000fd5b50506001546003546001600160a01b0391821693506340c10f19925016610a1160076109588660c861140c565b6040518363ffffffff1660e01b815260040180836001600160a01b0316815260200182815260200192505050600060405180830381600087803b158015610a5757600080fd5b505af1158015610a6b573d6000803e3d6000fd5b50506001546004546001600160a01b0391821693506340c10f19925016610a98600261095886601961140c565b6040518363ffffffff1660e01b815260040180836001600160a01b0316815260200182815260200192505050600060405180830381600087803b158015610ade57600080fd5b505af1158015610af2573d6000803e3d6000fd5b5050600154604080516340c10f1960e01b81523060048201526024810186905290516001600160a01b0390921693506340c10f19925060448082019260009290919082900301818387803b158015610b4957600080fd5b505af1158015610b5d573d6000803e3d6000fd5b50505050610b8b610b80846107c764e8d4a51000856113b390919063ffffffff16565b600386015490611352565b60038501555050436002909201919091555050565b600060078281548110610baf57fe5b60009182526020808320858452600882526040808520338087529352909320805460049093029093018054909450610bf4926001600160a01b03919091169190611621565b80546040805191825251849133917fbb757047c2b5f3974fe26b7c10f732e7bce710b0952a71082702781e62ae05959181900360200190a360008082556001909101555050565b6002546001600160a01b03163314610c86576040805162461bcd60e51b81526020600482015260096024820152686465763a207775743f60b81b604482015290519081900360640190fd5b600480546001600160a01b0319166001600160a01b0392909216919091179055565b60075460005b81811015610cc757610cbf81610867565b600101610cae565b5050565b610cd361134e565b6000546001600160a01b03908116911614610d23576040805162461bcd60e51b81526020600482018190526024820152600080516020611ac2833981519152604482015290519081900360640190fd5b8015610d3157610d31610ca8565b610d6e82610d6860078681548110610d4557fe5b90600052602060002090600402016001015460095461144e90919063ffffffff16565b90611352565b6009819055508160078481548110610d8257fe5b906000526020600020906004020160010181905550505050565b610da461134e565b6000546001600160a01b03908116911614610df4576040805162461bcd60e51b81526020600482018190526024820152600080516020611ac2833981519152604482015290519081900360640190fd5b600080546040516001600160a01b03909116907f8be0079c531659141344cd1fd0a4f28419497f9722a3daafe3b4186f6b6457e0908390a3600080546001600160a01b0319169055565b600181565b60065481565b6002546001600160a01b03163314610e94576040805162461bcd60e51b81526020600482015260096024820152686465763a207775743f60b81b604482015290519081900360640190fd5b600280546001600160a01b0319166001600160a01b0392909216919091179055565b6000546001600160a01b031690565b60006005548211610ee657610edf6001610958848661144e565b9050610f2b565b6005548310610ef957610edf828461144e565b610edf610f116005548461144e90919063ffffffff16565b610d6860016109588760055461144e90919063ffffffff16565b92915050565b60086020908152600092835260408084209091529082529020805460019091015482565b6003546001600160a01b031681565b60008060078481548110610f7457fe5b600091825260208083208784526008825260408085206001600160a01b03898116875290845281862060049586029093016003810154815484516370a0823160e01b81523098810198909852935191985093969395939492909116926370a08231926024808301939192829003018186803b158015610ff257600080fd5b505afa158015611006573d6000803e3d6000fd5b505050506040513d602081101561101c57600080fd5b505160028501549091504311801561103357508015155b15611093576000611048856002015443610ec5565b9050600061106f6009546107c78860010154610958600654876113b390919063ffffffff16565b905061108e611087846107c78464e8d4a510006113b3565b8590611352565b935050505b6110bb83600101546107cd64e8d4a510006107c78688600001546113b390919063ffffffff16565b979650505050505050565b6002546001600160a01b031681565b6000600783815481106110e457fe5b6000918252602080832086845260088252604080852033865290925292206004909102909101915061111584610867565b80541561115857600061114a82600101546107cd64e8d4a510006107c7876003015487600001546113b390919063ffffffff16565b90506111563382611490565b505b815461116f906001600160a01b0316333086611673565b805461117b9084611352565b80825560038301546111989164e8d4a51000916107c791906113b3565b6001820155604080518481529051859133917f90890809c654f11d6e72a28fa60149770a0d11ec6c92319d6ceb2bb0a4ea1a159181900360200190a350505050565b6111e261134e565b6000546001600160a01b03908116911614611232576040805162461bcd60e51b81526020600482018190526024820152600080516020611ac2833981519152604482015290519081900360640190fd5b6001600160a01b0381166112775760405162461bcd60e51b8152600401808060200182810382526026815260200180611a556026913960400191505060405180910390fd5b600080546040516001600160a01b03808516939216917f8be0079c531659141344cd1fd0a4f28419497f9722a3daafe3b4186f6b6457e091a3600080546001600160a01b0319166001600160a01b0392909216919091179055565b6002546001600160a01b0316331461131d576040805162461bcd60e51b81526020600482015260096024820152686465763a207775743f60b81b604482015290519081900360640190fd5b600380546001600160a01b0319166001600160a01b0392909216919091179055565b6001546001600160a01b031681565b3390565b6000828201838110156113ac576040805162461bcd60e51b815260206004820152601b60248201527f536166654d6174683a206164646974696f6e206f766572666c6f770000000000604482015290519081900360640190fd5b9392505050565b6000826113c257506000610f2b565b828202828482816113cf57fe5b04146113ac5760405162461bcd60e51b8152600401808060200182810382526021815260200180611aa16021913960400191505060405180910390fd5b60006113ac83836040518060400160405280601a81526020017f536166654d6174683a206469766973696f6e206279207a65726f0000000000008152506116d3565b60006113ac83836040518060400160405280601e81526020017f536166654d6174683a207375627472616374696f6e206f766572666c6f770000815250611775565b600154604080516370a0823160e01b815230600482015290516000926001600160a01b0316916370a08231916024808301926020929190829003018186803b1580156114db57600080fd5b505afa1580156114ef573d6000803e3d6000fd5b505050506040513d602081101561150557600080fd5b5051905080821115611599576001546040805163a9059cbb60e01b81526001600160a01b038681166004830152602482018590529151919092169163a9059cbb9160448083019260209291908290030181600087803b15801561156757600080fd5b505af115801561157b573d6000803e3d6000fd5b505050506040513d602081101561159157600080fd5b5061161c9050565b6001546040805163a9059cbb60e01b81526001600160a01b038681166004830152602482018690529151919092169163a9059cbb9160448083019260209291908290030181600087803b1580156115ef57600080fd5b505af1158015611603573d6000803e3d6000fd5b505050506040513d602081101561161957600080fd5b50505b505050565b604080516001600160a01b038416602482015260448082018490528251808303909101815260649091019091526020810180516001600160e01b031663a9059cbb60e01b17905261161c9084906117cf565b604080516001600160a01b0380861660248301528416604482015260648082018490528251808303909101815260849091019091526020810180516001600160e01b03166323b872dd60e01b1790526116cd9085906117cf565b50505050565b6000818361175f5760405162461bcd60e51b81526004018080602001828103825283818151815260200191508051906020019080838360005b8381101561172457818101518382015260200161170c565b50505050905090810190601f1680156117515780820380516001836020036101000a031916815260200191505b509250505060405180910390fd5b50600083858161176b57fe5b0495945050505050565b600081848411156117c75760405162461bcd60e51b815260206004820181815283516024840152835190928392604490910191908501908083836000831561172457818101518382015260200161170c565b505050900390565b6060611824826040518060400160405280602081526020017f5361666545524332303a206c6f772d6c6576656c2063616c6c206661696c6564815250856001600160a01b03166118809092919063ffffffff16565b80519091501561161c5780806020019051602081101561184357600080fd5b505161161c5760405162461bcd60e51b815260040180806020018281038252602a815260200180611ae2602a913960400191505060405180910390fd5b606061188f8484600085611897565b949350505050565b6060824710156118d85760405162461bcd60e51b8152600401808060200182810382526026815260200180611a7b6026913960400191505060405180910390fd5b6118e1856119e8565b611932576040805162461bcd60e51b815260206004820152601d60248201527f416464726573733a2063616c6c20746f206e6f6e2d636f6e7472616374000000604482015290519081900360640190fd5b60006060866001600160a01b031685876040518082805190602001908083835b602083106119715780518252601f199092019160209182019101611952565b6001836020036101000a03801982511681845116808217855250505050505090500191505060006040518083038185875af1925050503d80600081146119d3576040519150601f19603f3d011682016040523d82523d6000602084013e6119d8565b606091505b50915091506110bb8282866119ee565b3b151590565b606083156119fd5750816113ac565b825115611a0d5782518084602001fd5b60405162461bcd60e51b815260206004820181815284516024840152845185939192839260440191908501908083836000831561172457818101518382015260200161170c56fe4f776e61626c653a206e6577206f776e657220697320746865207a65726f2061646472657373416464726573733a20696e73756666696369656e742062616c616e636520666f722063616c6c536166654d6174683a206d756c7469706c69636174696f6e206f766572666c6f774f776e61626c653a2063616c6c6572206973206e6f7420746865206f776e65725361666545524332303a204552433230206f7065726174696f6e20646964206e6f742073756363656564a2646970667358221220a84acd8992048e35653a4a164d55fa2dd9ab998debfe1d92b6cdfd34157388a264736f6c634300060c0033",
  "immutableReferences": {},
  "source": "// SPDX-License-Identifier: MIT\n\npragma solidity ^0.6.12;\n\nimport \"@openzeppelin/contracts/math/SafeMath.sol\";\nimport \"@openzeppelin/contracts/token/ERC20/IERC20.sol\";\nimport \"@openzeppelin/contracts/token/ERC20/SafeERC20.sol\";\nimport \"@openzeppelin/contracts/token/ERC20/ERC20.sol\";\nimport \"@openzeppelin/contracts/utils/Address.sol\";\nimport \"@openzeppelin/contracts/GSN/Context.sol\";\nimport \"@openzeppelin/contracts/access/Ownable.sol\";\nimport \"./DogenToken.sol\";\n\ncontract DogenMasterDog is Ownable {\n    using SafeMath for uint256;\n    using SafeERC20 for IERC20;\n\n    // Info of each user.\n    struct UserInfo {\n        uint256 amount;     // How many LP tokens the user has provided.\n        uint256 rewardDebt; // Reward debt. See explanation below.\n        //\n        // We do some fancy math here. Basically, any point in time, the amount of rewards\n        // entitled to a user but is pending to be distributed is:\n        //\n        //   pending reward = (user.amount * pool.accRewardPerShare) - user.rewardDebt\n        //\n        // Whenever a user deposits or withdraws LP tokens to a pool. Here's what happens:\n        //   1. The pool's `accRewardPerShare` (and `lastRewardBlock`) gets updated.\n        //   2. User receives the pending reward sent to his/her address.\n        //   3. User's `amount` gets updated.\n        //   4. User's `rewardDebt` gets updated.\n    }\n\n    // Info of each pool.\n    struct PoolInfo {\n        IERC20 lpToken;           // Address of LP token contract.\n        uint256 allocPoint;       // How many allocation points assigned to this pool. Rewards to distribute per block.\n        uint256 lastRewardBlock;  // Last block number that reward distribution occurs.\n        uint256 accRewardPerShare; // Accumulated rewards per share, times 1e12. See below.\n    }\n\n    // The Dogen Reward TOKEN.\n    DogenToken public dogenToken;\n    // Dev address.\n    address public devAddr;\n    address public founderAddr;\n    address public communityAddr;\n    // Block number when bonus rewards period ends.\n    uint256 public bonusEndBlock;\n    // Reward tokens created per block.\n    uint256 public rewardPerBlock;\n    // Bonus multiplier for early contributors.\n    uint256 public constant BONUS_MULTIPLIER = 1; // no bonus\n\n    // Info of each pool.\n    PoolInfo[] public poolInfo;\n    // Info of each user that stakes LP tokens.\n    mapping (uint256 => mapping (address => UserInfo)) public userInfo;\n    // Total allocation points. Must be the sum of all allocation points in all pools.\n    uint256 public totalAllocPoint = 0;\n    // The block number when reward mining starts.\n    uint256 public startBlock;\n\n    event Deposit(address indexed user, uint256 indexed pid, uint256 amount);\n    event Withdraw(address indexed user, uint256 indexed pid, uint256 amount);\n    event EmergencyWithdraw(address indexed user, uint256 indexed pid, uint256 amount);\n\n    constructor(\n        DogenToken _dogenToken,\n        address _devAddr,\n        address _founderAddr,\n        address _communityAddr,\n        uint256 _rewardPerBlock,\n        uint256 _startBlock,\n        uint256 _bonusEndBlock\n    ) public {\n        dogenToken = _dogenToken;\n        devAddr = _devAddr;\n        founderAddr = _founderAddr;\n        communityAddr = _communityAddr;\n        rewardPerBlock = _rewardPerBlock;\n        bonusEndBlock = _bonusEndBlock;\n        startBlock = _startBlock;\n    }\n\n    function poolLength() external view returns (uint256) {\n        return poolInfo.length;\n    }\n\n    // Add a new lp to the pool. Can only be called by the owner.\n    // XXX DO NOT add the same LP token more than once. Rewards will be messed up if you do.\n    function add(uint256 _allocPoint, IERC20 _lpToken, bool _withUpdate) public onlyOwner {\n        if (_withUpdate) {\n            massUpdatePools();\n        }\n        uint256 lastRewardBlock = block.number > startBlock ? block.number : startBlock;\n        totalAllocPoint = totalAllocPoint.add(_allocPoint);\n        poolInfo.push(PoolInfo({\n            lpToken: _lpToken,\n            allocPoint: _allocPoint,\n            lastRewardBlock: lastRewardBlock,\n            accRewardPerShare: 0\n        }));\n    }\n\n    // Update the given pool's rewards allocation point. Can only be called by the owner.\n    function set(uint256 _pid, uint256 _allocPoint, bool _withUpdate) public onlyOwner {\n        if (_withUpdate) {\n            massUpdatePools();\n        }\n        totalAllocPoint = totalAllocPoint.sub(poolInfo[_pid].allocPoint).add(_allocPoint);\n        poolInfo[_pid].allocPoint = _allocPoint;\n    }\n\n    // Return reward multiplier over the given _from to _to block.\n    function getMultiplier(uint256 _from, uint256 _to) public view returns (uint256) {\n        if (_to <= bonusEndBlock) {\n            return _to.sub(_from).mul(BONUS_MULTIPLIER);\n        } else if (_from >= bonusEndBlock) {\n            return _to.sub(_from);\n        } else {\n            return bonusEndBlock.sub(_from).mul(BONUS_MULTIPLIER).add(\n                _to.sub(bonusEndBlock)\n            );\n        }\n    }\n\n    // View function to see pending rewards on frontend.\n    function pendingRewards(uint256 _pid, address _user) external view returns (uint256) {\n        PoolInfo storage pool = poolInfo[_pid];\n        UserInfo storage user = userInfo[_pid][_user];\n        uint256 accRewardPerShare = pool.accRewardPerShare;\n        uint256 lpSupply = pool.lpToken.balanceOf(address(this));\n        if (block.number > pool.lastRewardBlock && lpSupply != 0) {\n            uint256 multiplier = getMultiplier(pool.lastRewardBlock, block.number);\n            uint256 reward = multiplier.mul(rewardPerBlock).mul(pool.allocPoint).div(totalAllocPoint);\n            accRewardPerShare = accRewardPerShare.add(reward.mul(1e12).div(lpSupply));\n        }\n        return user.amount.mul(accRewardPerShare).div(1e12).sub(user.rewardDebt);\n    }\n\n    // Update reward variables for all pools. Be careful of gas spending!\n    function massUpdatePools() public {\n        uint256 length = poolInfo.length;\n        for (uint256 pid = 0; pid < length; ++pid) {\n            updatePool(pid);\n        }\n    }\n\n    // Update reward variables of the given pool to be up-to-date.\n    function updatePool(uint256 _pid) public {\n        PoolInfo storage pool = poolInfo[_pid];\n        if (block.number <= pool.lastRewardBlock) {\n            return;\n        }\n        uint256 lpSupply = pool.lpToken.balanceOf(address(this));\n        if (lpSupply == 0) {\n            pool.lastRewardBlock = block.number;\n            return;\n        }\n        uint256 multiplier = getMultiplier(pool.lastRewardBlock, block.number);\n        uint256 reward = multiplier.mul(rewardPerBlock).mul(pool.allocPoint).div(totalAllocPoint);\n        dogenToken.mint(devAddr, reward.div(200).mul(7)); // 3.5%\n        dogenToken.mint(founderAddr, reward.div(200).mul(7)); // 3.5%\n        dogenToken.mint(communityAddr, reward.div(25).mul(2)); // 8%\n        dogenToken.mint(address(this), reward);\n        pool.accRewardPerShare = pool.accRewardPerShare.add(reward.mul(1e12).div(lpSupply));\n        pool.lastRewardBlock = block.number;\n    }\n\n    // Deposit LP tokens to MasterDog for reward allocation.\n    function deposit(uint256 _pid, uint256 _amount) public {\n        PoolInfo storage pool = poolInfo[_pid];\n        UserInfo storage user = userInfo[_pid][msg.sender];\n        updatePool(_pid);\n        if (user.amount > 0) {\n            uint256 pending = user.amount.mul(pool.accRewardPerShare).div(1e12).sub(user.rewardDebt);\n            safeTokenTransfer(msg.sender, pending);\n        }\n        pool.lpToken.safeTransferFrom(address(msg.sender), address(this), _amount);\n        user.amount = user.amount.add(_amount);\n        user.rewardDebt = user.amount.mul(pool.accRewardPerShare).div(1e12);\n        emit Deposit(msg.sender, _pid, _amount);\n    }\n\n    // Withdraw LP tokens from MasterDog.\n    function withdraw(uint256 _pid, uint256 _amount) public {\n        PoolInfo storage pool = poolInfo[_pid];\n        UserInfo storage user = userInfo[_pid][msg.sender];\n        require(user.amount >= _amount, \"withdraw: not good\");\n        updatePool(_pid);\n        uint256 pending = user.amount.mul(pool.accRewardPerShare).div(1e12).sub(user.rewardDebt);\n        safeTokenTransfer(msg.sender, pending);\n        user.amount = user.amount.sub(_amount);\n        user.rewardDebt = user.amount.mul(pool.accRewardPerShare).div(1e12);\n        pool.lpToken.safeTransfer(address(msg.sender), _amount);\n        emit Withdraw(msg.sender, _pid, _amount);\n    }\n\n    // Withdraw without caring about rewards. EMERGENCY ONLY.\n    function emergencyWithdraw(uint256 _pid) public {\n        PoolInfo storage pool = poolInfo[_pid];\n        UserInfo storage user = userInfo[_pid][msg.sender];\n        pool.lpToken.safeTransfer(address(msg.sender), user.amount);\n        emit EmergencyWithdraw(msg.sender, _pid, user.amount);\n        user.amount = 0;\n        user.rewardDebt = 0;\n    }\n\n    // Safe token transfer function, just in case if rounding error causes pool to not have enough tokens.\n    function safeTokenTransfer(address _to, uint256 _amount) internal {\n        uint256 rewardBal = dogenToken.balanceOf(address(this));\n        if (_amount > rewardBal) {\n            dogenToken.transfer(_to, rewardBal);\n        } else {\n            dogenToken.transfer(_to, _amount);\n        }\n    }\n\n    // Update dev address by the previous dev.\n    function dev(address _devAddr) public {\n        require(msg.sender == devAddr, \"dev: wut?\");\n        devAddr = _devAddr;\n    }\n\n    // Update founderAddr address by the previous founderAddr.\n    function founder(address _founderAddr) public {\n        require(msg.sender == devAddr, \"dev: wut?\");\n        founderAddr = _founderAddr;\n    }\n\n    // Update communityAddr address by the previous communityAddr.\n    function community(address _communityAddr) public {\n        require(msg.sender == devAddr, \"dev: wut?\");\n        communityAddr = _communityAddr;\n    }\n\n    // Update rewardPerBlock value\n    function updateRewardPerBlock(uint256 _rewardPerBlock) public {\n        require(msg.sender == devAddr, \"dev: wut?\");\n        rewardPerBlock = _rewardPerBlock;\n        massUpdatePools();\n    }\n}\n",
  "sourcePath": "/Volumes/Data/Code/planb/dogen/contracts/DogenMasterDog.sol",
  "compiler": {
    "name": "solc",
    "version": "0.6.12+commit.27d51765.Emscripten.clang"
  },
  "schemaVersion": "3.3.3",
  "updatedAt": "2021-04-20T11:20:12.123Z",
  "devdoc": {
    "kind": "dev",
    "methods": {
      "owner()": {
        "details": "Returns the address of the current owner."
      },
      "renounceOwnership()": {
        "details": "Leaves the contract without owner. It will not be possible to call `onlyOwner` functions anymore. Can only be called by the current owner. NOTE: Renouncing ownership will leave the contract without an owner, thereby removing any functionality that is only available to the owner."
      },
      "transferOwnership(address)": {
        "details": "Transfers ownership of the contract to a new account (`newOwner`). Can only be called by the current owner."
      }
    },
    "version": 1
  },
  "userdoc": {
    "kind": "user",
    "methods": {},
    "version": 1
  }
}