{
  "contractName": "DogenToken",
  "abi": [
    {
      "inputs": [
        {
          "internalType": "uint256",
          "name": "_lockFromBlock",
          "type": "uint256"
        },
        {
          "internalType": "uint256",
          "name": "_lockToBlock",
          "type": "uint256"
        }
      ],
      "stateMutability": "nonpayable",
      "type": "constructor"
    },
    {
      "anonymous": false,
      "inputs": [
        {
          "indexed": true,
          "internalType": "address",
          "name": "owner",
          "type": "address"
        },
        {
          "indexed": true,
          "internalType": "address",
          "name": "spender",
          "type": "address"
        },
        {
          "indexed": false,
          "internalType": "uint256",
          "name": "value",
          "type": "uint256"
        }
      ],
      "name": "Approval",
      "type": "event"
    },
    {
      "anonymous": false,
      "inputs": [
        {
          "indexed": true,
          "internalType": "address",
          "name": "delegator",
          "type": "address"
        },
        {
          "indexed": true,
          "internalType": "address",
          "name": "fromDelegate",
          "type": "address"
        },
        {
          "indexed": true,
          "internalType": "address",
          "name": "toDelegate",
          "type": "address"
        }
      ],
      "name": "DelegateChanged",
      "type": "event"
    },
    {
      "anonymous": false,
      "inputs": [
        {
          "indexed": true,
          "internalType": "address",
          "name": "delegate",
          "type": "address"
        },
        {
          "indexed": false,
          "internalType": "uint256",
          "name": "previousBalance",
          "type": "uint256"
        },
        {
          "indexed": false,
          "internalType": "uint256",
          "name": "newBalance",
          "type": "uint256"
        }
      ],
      "name": "DelegateVotesChanged",
      "type": "event"
    },
    {
      "anonymous": false,
      "inputs": [
        {
          "indexed": true,
          "internalType": "address",
          "name": "to",
          "type": "address"
        },
        {
          "indexed": false,
          "internalType": "uint256",
          "name": "value",
          "type": "uint256"
        }
      ],
      "name": "Lock",
      "type": "event"
    },
    {
      "anonymous": false,
      "inputs": [
        {
          "indexed": true,
          "internalType": "address",
          "name": "previousOwner",
          "type": "address"
        },
        {
          "indexed": true,
          "internalType": "address",
          "name": "newOwner",
          "type": "address"
        }
      ],
      "name": "OwnershipTransferred",
      "type": "event"
    },
    {
      "anonymous": false,
      "inputs": [
        {
          "indexed": true,
          "internalType": "address",
          "name": "from",
          "type": "address"
        },
        {
          "indexed": true,
          "internalType": "address",
          "name": "to",
          "type": "address"
        },
        {
          "indexed": false,
          "internalType": "uint256",
          "name": "value",
          "type": "uint256"
        }
      ],
      "name": "Transfer",
      "type": "event"
    },
    {
      "inputs": [],
      "name": "DELEGATION_TYPEHASH",
      "outputs": [
        {
          "internalType": "bytes32",
          "name": "",
          "type": "bytes32"
        }
      ],
      "stateMutability": "view",
      "type": "function"
    },
    {
      "inputs": [],
      "name": "DOMAIN_TYPEHASH",
      "outputs": [
        {
          "internalType": "bytes32",
          "name": "",
          "type": "bytes32"
        }
      ],
      "stateMutability": "view",
      "type": "function"
    },
    {
      "inputs": [
        {
          "internalType": "address",
          "name": "_toAdd",
          "type": "address"
        }
      ],
      "name": "addAuthorized",
      "outputs": [],
      "stateMutability": "nonpayable",
      "type": "function"
    },
    {
      "inputs": [
        {
          "internalType": "address",
          "name": "owner",
          "type": "address"
        },
        {
          "internalType": "address",
          "name": "spender",
          "type": "address"
        }
      ],
      "name": "allowance",
      "outputs": [
        {
          "internalType": "uint256",
          "name": "",
          "type": "uint256"
        }
      ],
      "stateMutability": "view",
      "type": "function"
    },
    {
      "inputs": [
        {
          "internalType": "address",
          "name": "spender",
          "type": "address"
        },
        {
          "internalType": "uint256",
          "name": "amount",
          "type": "uint256"
        }
      ],
      "name": "approve",
      "outputs": [
        {
          "internalType": "bool",
          "name": "",
          "type": "bool"
        }
      ],
      "stateMutability": "nonpayable",
      "type": "function"
    },
    {
      "inputs": [
        {
          "internalType": "address",
          "name": "",
          "type": "address"
        }
      ],
      "name": "authorized",
      "outputs": [
        {
          "internalType": "bool",
          "name": "",
          "type": "bool"
        }
      ],
      "stateMutability": "view",
      "type": "function"
    },
    {
      "inputs": [
        {
          "internalType": "address",
          "name": "account",
          "type": "address"
        }
      ],
      "name": "balanceOf",
      "outputs": [
        {
          "internalType": "uint256",
          "name": "",
          "type": "uint256"
        }
      ],
      "stateMutability": "view",
      "type": "function"
    },
    {
      "inputs": [
        {
          "internalType": "address",
          "name": "",
          "type": "address"
        },
        {
          "internalType": "uint32",
          "name": "",
          "type": "uint32"
        }
      ],
      "name": "checkpoints",
      "outputs": [
        {
          "internalType": "uint32",
          "name": "fromBlock",
          "type": "uint32"
        },
        {
          "internalType": "uint256",
          "name": "votes",
          "type": "uint256"
        }
      ],
      "stateMutability": "view",
      "type": "function"
    },
    {
      "inputs": [],
      "name": "decimals",
      "outputs": [
        {
          "internalType": "uint8",
          "name": "",
          "type": "uint8"
        }
      ],
      "stateMutability": "view",
      "type": "function"
    },
    {
      "inputs": [
        {
          "internalType": "address",
          "name": "spender",
          "type": "address"
        },
        {
          "internalType": "uint256",
          "name": "subtractedValue",
          "type": "uint256"
        }
      ],
      "name": "decreaseAllowance",
      "outputs": [
        {
          "internalType": "bool",
          "name": "",
          "type": "bool"
        }
      ],
      "stateMutability": "nonpayable",
      "type": "function"
    },
    {
      "inputs": [
        {
          "internalType": "address",
          "name": "spender",
          "type": "address"
        },
        {
          "internalType": "uint256",
          "name": "addedValue",
          "type": "uint256"
        }
      ],
      "name": "increaseAllowance",
      "outputs": [
        {
          "internalType": "bool",
          "name": "",
          "type": "bool"
        }
      ],
      "stateMutability": "nonpayable",
      "type": "function"
    },
    {
      "inputs": [],
      "name": "lockFromBlock",
      "outputs": [
        {
          "internalType": "uint256",
          "name": "",
          "type": "uint256"
        }
      ],
      "stateMutability": "view",
      "type": "function"
    },
    {
      "inputs": [],
      "name": "lockToBlock",
      "outputs": [
        {
          "internalType": "uint256",
          "name": "",
          "type": "uint256"
        }
      ],
      "stateMutability": "view",
      "type": "function"
    },
    {
      "inputs": [],
      "name": "manualMintLimit",
      "outputs": [
        {
          "internalType": "uint256",
          "name": "",
          "type": "uint256"
        }
      ],
      "stateMutability": "view",
      "type": "function"
    },
    {
      "inputs": [],
      "name": "manualMinted",
      "outputs": [
        {
          "internalType": "uint256",
          "name": "",
          "type": "uint256"
        }
      ],
      "stateMutability": "view",
      "type": "function"
    },
    {
      "inputs": [],
      "name": "name",
      "outputs": [
        {
          "internalType": "string",
          "name": "",
          "type": "string"
        }
      ],
      "stateMutability": "view",
      "type": "function"
    },
    {
      "inputs": [
        {
          "internalType": "address",
          "name": "",
          "type": "address"
        }
      ],
      "name": "nonces",
      "outputs": [
        {
          "internalType": "uint256",
          "name": "",
          "type": "uint256"
        }
      ],
      "stateMutability": "view",
      "type": "function"
    },
    {
      "inputs": [
        {
          "internalType": "address",
          "name": "",
          "type": "address"
        }
      ],
      "name": "numCheckpoints",
      "outputs": [
        {
          "internalType": "uint32",
          "name": "",
          "type": "uint32"
        }
      ],
      "stateMutability": "view",
      "type": "function"
    },
    {
      "inputs": [],
      "name": "owner",
      "outputs": [
        {
          "internalType": "address",
          "name": "",
          "type": "address"
        }
      ],
      "stateMutability": "view",
      "type": "function"
    },
    {
      "inputs": [
        {
          "internalType": "address",
          "name": "_toRemove",
          "type": "address"
        }
      ],
      "name": "removeAuthorized",
      "outputs": [],
      "stateMutability": "nonpayable",
      "type": "function"
    },
    {
      "inputs": [],
      "name": "renounceOwnership",
      "outputs": [],
      "stateMutability": "nonpayable",
      "type": "function"
    },
    {
      "inputs": [],
      "name": "symbol",
      "outputs": [
        {
          "internalType": "string",
          "name": "",
          "type": "string"
        }
      ],
      "stateMutability": "view",
      "type": "function"
    },
    {
      "inputs": [],
      "name": "totalSupply",
      "outputs": [
        {
          "internalType": "uint256",
          "name": "",
          "type": "uint256"
        }
      ],
      "stateMutability": "view",
      "type": "function"
    },
    {
      "inputs": [
        {
          "internalType": "address",
          "name": "recipient",
          "type": "address"
        },
        {
          "internalType": "uint256",
          "name": "amount",
          "type": "uint256"
        }
      ],
      "name": "transfer",
      "outputs": [
        {
          "internalType": "bool",
          "name": "",
          "type": "bool"
        }
      ],
      "stateMutability": "nonpayable",
      "type": "function"
    },
    {
      "inputs": [
        {
          "internalType": "address",
          "name": "sender",
          "type": "address"
        },
        {
          "internalType": "address",
          "name": "recipient",
          "type": "address"
        },
        {
          "internalType": "uint256",
          "name": "amount",
          "type": "uint256"
        }
      ],
      "name": "transferFrom",
      "outputs": [
        {
          "internalType": "bool",
          "name": "",
          "type": "bool"
        }
      ],
      "stateMutability": "nonpayable",
      "type": "function"
    },
    {
      "inputs": [
        {
          "internalType": "address",
          "name": "newOwner",
          "type": "address"
        }
      ],
      "name": "transferOwnership",
      "outputs": [],
      "stateMutability": "nonpayable",
      "type": "function"
    },
    {
      "inputs": [],
      "name": "cap",
      "outputs": [
        {
          "internalType": "uint256",
          "name": "",
          "type": "uint256"
        }
      ],
      "stateMutability": "view",
      "type": "function"
    },
    {
      "inputs": [
        {
          "internalType": "uint256",
          "name": "_newCap",
          "type": "uint256"
        }
      ],
      "name": "capUpdate",
      "outputs": [],
      "stateMutability": "nonpayable",
      "type": "function"
    },
    {
      "inputs": [
        {
          "internalType": "uint256",
          "name": "_newLockFrom",
          "type": "uint256"
        }
      ],
      "name": "lockFromUpdate",
      "outputs": [],
      "stateMutability": "nonpayable",
      "type": "function"
    },
    {
      "inputs": [
        {
          "internalType": "uint256",
          "name": "_newLockTo",
          "type": "uint256"
        }
      ],
      "name": "lockToUpdate",
      "outputs": [],
      "stateMutability": "nonpayable",
      "type": "function"
    },
    {
      "inputs": [],
      "name": "unlockedSupply",
      "outputs": [
        {
          "internalType": "uint256",
          "name": "",
          "type": "uint256"
        }
      ],
      "stateMutability": "view",
      "type": "function"
    },
    {
      "inputs": [],
      "name": "lockedSupply",
      "outputs": [
        {
          "internalType": "uint256",
          "name": "",
          "type": "uint256"
        }
      ],
      "stateMutability": "view",
      "type": "function"
    },
    {
      "inputs": [],
      "name": "circulatingSupply",
      "outputs": [
        {
          "internalType": "uint256",
          "name": "",
          "type": "uint256"
        }
      ],
      "stateMutability": "view",
      "type": "function"
    },
    {
      "inputs": [],
      "name": "totalLock",
      "outputs": [
        {
          "internalType": "uint256",
          "name": "",
          "type": "uint256"
        }
      ],
      "stateMutability": "view",
      "type": "function"
    },
    {
      "inputs": [
        {
          "internalType": "address",
          "name": "_to",
          "type": "address"
        },
        {
          "internalType": "uint256",
          "name": "_amount",
          "type": "uint256"
        }
      ],
      "name": "mint",
      "outputs": [],
      "stateMutability": "nonpayable",
      "type": "function"
    },
    {
      "inputs": [
        {
          "internalType": "address",
          "name": "_to",
          "type": "address"
        },
        {
          "internalType": "uint256",
          "name": "_amount",
          "type": "uint256"
        }
      ],
      "name": "manualMint",
      "outputs": [],
      "stateMutability": "nonpayable",
      "type": "function"
    },
    {
      "inputs": [
        {
          "internalType": "address",
          "name": "_holder",
          "type": "address"
        }
      ],
      "name": "totalBalanceOf",
      "outputs": [
        {
          "internalType": "uint256",
          "name": "",
          "type": "uint256"
        }
      ],
      "stateMutability": "view",
      "type": "function"
    },
    {
      "inputs": [
        {
          "internalType": "address",
          "name": "_holder",
          "type": "address"
        }
      ],
      "name": "lockOf",
      "outputs": [
        {
          "internalType": "uint256",
          "name": "",
          "type": "uint256"
        }
      ],
      "stateMutability": "view",
      "type": "function"
    },
    {
      "inputs": [
        {
          "internalType": "address",
          "name": "_holder",
          "type": "address"
        }
      ],
      "name": "lastUnlockBlock",
      "outputs": [
        {
          "internalType": "uint256",
          "name": "",
          "type": "uint256"
        }
      ],
      "stateMutability": "view",
      "type": "function"
    },
    {
      "inputs": [
        {
          "internalType": "address",
          "name": "_holder",
          "type": "address"
        },
        {
          "internalType": "uint256",
          "name": "_amount",
          "type": "uint256"
        }
      ],
      "name": "lock",
      "outputs": [],
      "stateMutability": "nonpayable",
      "type": "function"
    },
    {
      "inputs": [
        {
          "internalType": "address",
          "name": "_holder",
          "type": "address"
        }
      ],
      "name": "canUnlockAmount",
      "outputs": [
        {
          "internalType": "uint256",
          "name": "",
          "type": "uint256"
        }
      ],
      "stateMutability": "view",
      "type": "function"
    },
    {
      "inputs": [],
      "name": "unlock",
      "outputs": [],
      "stateMutability": "nonpayable",
      "type": "function"
    },
    {
      "inputs": [
        {
          "internalType": "address",
          "name": "_to",
          "type": "address"
        }
      ],
      "name": "transferAll",
      "outputs": [],
      "stateMutability": "nonpayable",
      "type": "function"
    },
    {
      "inputs": [
        {
          "internalType": "address",
          "name": "delegator",
          "type": "address"
        }
      ],
      "name": "delegates",
      "outputs": [
        {
          "internalType": "address",
          "name": "",
          "type": "address"
        }
      ],
      "stateMutability": "view",
      "type": "function"
    },
    {
      "inputs": [
        {
          "internalType": "address",
          "name": "delegatee",
          "type": "address"
        }
      ],
      "name": "delegate",
      "outputs": [],
      "stateMutability": "nonpayable",
      "type": "function"
    },
    {
      "inputs": [
        {
          "internalType": "address",
          "name": "delegatee",
          "type": "address"
        },
        {
          "internalType": "uint256",
          "name": "nonce",
          "type": "uint256"
        },
        {
          "internalType": "uint256",
          "name": "expiry",
          "type": "uint256"
        },
        {
          "internalType": "uint8",
          "name": "v",
          "type": "uint8"
        },
        {
          "internalType": "bytes32",
          "name": "r",
          "type": "bytes32"
        },
        {
          "internalType": "bytes32",
          "name": "s",
          "type": "bytes32"
        }
      ],
      "name": "delegateBySig",
      "outputs": [],
      "stateMutability": "nonpayable",
      "type": "function"
    },
    {
      "inputs": [
        {
          "internalType": "address",
          "name": "account",
          "type": "address"
        }
      ],
      "name": "getCurrentVotes",
      "outputs": [
        {
          "internalType": "uint256",
          "name": "",
          "type": "uint256"
        }
      ],
      "stateMutability": "view",
      "type": "function"
    },
    {
      "inputs": [
        {
          "internalType": "address",
          "name": "account",
          "type": "address"
        },
        {
          "internalType": "uint256",
          "name": "blockNumber",
          "type": "uint256"
        }
      ],
      "name": "getPriorVotes",
      "outputs": [
        {
          "internalType": "uint256",
          "name": "",
          "type": "uint256"
        }
      ],
      "stateMutability": "view",
      "type": "function"
    }
  ],
  "bytecode": "0x60806040526c054d17db76321263eca000000060075569d3c21bcecceda1000000600b556000600c553480156200003557600080fd5b50604051620029a4380380620029a4833981810160405260408110156200005b57600080fd5b508051602091820151604080518082018252600a8152692237b3b2b72a37b5b2b760b11b818601908152825180840190935260058352642227a3a2a760d91b958301959095528051939492939092620000b8916003919062000153565b508051620000ce90600490602084019062000153565b50506005805460ff19166012179055506000620000ea6200014f565b60058054610100600160a81b0319166101006001600160a01b03841690810291909117909155604051919250906000907f8be0079c531659141344cd1fd0a4f28419497f9722a3daafe3b4186f6b6457e0908290a350600991909155600a55620001ef565b3390565b828054600181600116156101000203166002900490600052602060002090601f016020900481019282601f106200019657805160ff1916838001178555620001c6565b82800160010185558215620001c6579182015b82811115620001c6578251825591602001919060010190620001a9565b50620001d4929150620001d8565b5090565b5b80821115620001d45760008155600101620001d9565b6127a580620001ff6000396000f3fe608060405234801561001057600080fd5b50600436106102a05760003560e01c80637ecebe0011610167578063c38533c6116100ce578063e6b2fb4a11610087578063e6b2fb4a14610873578063e7a324dc1461087b578063f1127ed814610883578063f2fde38b146108d5578063f85b84a4146108fb578063fd3d27b814610903576102a0565b8063c38533c614610787578063c3cda520146107a4578063ca5c7b91146107eb578063cf1c316a146107f3578063dd62ed3e14610819578063e4c5ff4614610847576102a0565b8063a3a7e7f311610120578063a3a7e7f3146106b5578063a457c2d7146106db578063a69df4b514610707578063a9059cbb1461070f578063b4b5ea571461073b578063b918161114610761576102a0565b80637ecebe001461064957806389a2867c1461066f5780638da5cb5b146106955780638e875e1a1461069d5780639358928b146106a557806395d89b41146106ad576102a0565b806340346c491161020b5780635c19a95c116101c45780635c19a95c1461058257806366fc237b146105a85780636fcfff45146105b057806370a08231146105ef578063715018a614610615578063782d6fe11461061d576102a0565b806340346c491461048557806340c10f19146104a2578063485d7d94146104ce5780634b0ee02a146104f4578063587cde1e1461051a5780635a46d3b51461055c576102a0565b806323b872dd1161025d57806323b872dd146103c9578063282d3fdf146103ff578063313ce5671461042b578063355274ea1461044957806339509351146104515780633a1aae351461047d576102a0565b806306fdde03146102a5578063095ea7b3146103225780630cb285e21461036257806318160ddd14610381578063202b17601461039b57806320606b70146103c1575b600080fd5b6102ad61090b565b6040805160208082528351818301528351919283929083019185019080838360005b838110156102e75781810151838201526020016102cf565b50505050905090810190601f1680156103145780820380516001836020036101000a031916815260200191505b509250505060405180910390f35b61034e6004803603604081101561033857600080fd5b506001600160a01b0381351690602001356109a1565b604080519115158252519081900360200190f35b61037f6004803603602081101561037857600080fd5b50356109bf565b005b6103896109fa565b60408051918252519081900360200190f35b610389600480360360208110156103b157600080fd5b50356001600160a01b0316610a00565b610389610ac6565b61034e600480360360608110156103df57600080fd5b506001600160a01b03813581169160208101359091169060400135610aea565b61037f6004803603604081101561041557600080fd5b506001600160a01b038135169060200135610b71565b610433610d5f565b6040805160ff9092168252519081900360200190f35b610389610d68565b61034e6004803603604081101561046757600080fd5b506001600160a01b038135169060200135610d6e565b610389610dbc565b61037f6004803603602081101561049b57600080fd5b5035610dc2565b61037f600480360360408110156104b857600080fd5b506001600160a01b038135169060200135610dfd565b61037f600480360360208110156104e457600080fd5b50356001600160a01b0316610e8d565b6103896004803603602081101561050a57600080fd5b50356001600160a01b0316610f21565b6105406004803603602081101561053057600080fd5b50356001600160a01b0316610f4e565b604080516001600160a01b039092168252519081900360200190f35b6103896004803603602081101561057257600080fd5b50356001600160a01b0316610f6c565b61037f6004803603602081101561059857600080fd5b50356001600160a01b0316610f87565b610389610f94565b6105d6600480360360208110156105c657600080fd5b50356001600160a01b0316610f9a565b6040805163ffffffff9092168252519081900360200190f35b6103896004803603602081101561060557600080fd5b50356001600160a01b0316610fb2565b61037f610fcd565b6103896004803603604081101561063357600080fd5b506001600160a01b03813516906020013561107a565b6103896004803603602081101561065f57600080fd5b50356001600160a01b0316611282565b6103896004803603602081101561068557600080fd5b50356001600160a01b0316611294565b6105406112af565b6103896112c3565b6103896112c9565b6102ad6112d8565b61037f600480360360208110156106cb57600080fd5b50356001600160a01b0316611339565b61034e600480360360408110156106f157600080fd5b506001600160a01b038135169060200135611427565b61037f61148f565b61034e6004803603604081101561072557600080fd5b506001600160a01b038135169060200135611566565b6103896004803603602081101561075157600080fd5b50356001600160a01b031661157a565b61034e6004803603602081101561077757600080fd5b50356001600160a01b03166115de565b61037f6004803603602081101561079d57600080fd5b50356115f3565b61037f600480360360c08110156107ba57600080fd5b506001600160a01b038135169060208101359060408101359060ff6060820135169060808101359060a0013561162e565b6103896118a1565b61037f6004803603602081101561080957600080fd5b50356001600160a01b03166118ab565b6103896004803603604081101561082f57600080fd5b506001600160a01b038135811691602001351661192c565b61037f6004803603604081101561085d57600080fd5b506001600160a01b038135169060200135611957565b6103896119dc565b6103896119e2565b6108b56004803603604081101561089957600080fd5b5080356001600160a01b0316906020013563ffffffff16611a06565b6040805163ffffffff909316835260208301919091528051918290030190f35b61037f600480360360208110156108eb57600080fd5b50356001600160a01b0316611a33565b610389611b3c565b610389611b42565b60038054604080516020601f60026000196101006001881615020190951694909404938401819004810282018101909252828152606093909290918301828280156109975780601f1061096c57610100808354040283529160200191610997565b820191906000526020600020905b81548152906001019060200180831161097a57829003601f168201915b5050505050905090565b60006109b56109ae611b58565b8484611b5c565b5060015b92915050565b3360009081526006602052604090205460ff16806109ec5750336109e16112af565b6001600160a01b0316145b6109f557600080fd5b600a55565b60025490565b6000600954431015610a1457506000610ac1565b600a544310610a3c57506001600160a01b0381166000908152600d6020526040902054610ac1565b6001600160a01b0382166000908152600e6020526040812054610a60904390611c48565b6001600160a01b0384166000908152600e6020526040812054600a549293509091610a8a91611c48565b6001600160a01b0385166000908152600d6020526040902054909150610abc908290610ab69085611c8a565b90611ce3565b925050505b919050565b7f8cad95687ba82c2ce50e74f7b754645e5117c3a5bec8151c0726d5857980a86681565b6000610af7848484611d25565b610b6784610b03611b58565b610b62856040518060600160405280602881526020016126ba602891396001600160a01b038a16600090815260016020526040812090610b41611b58565b6001600160a01b031681526020810191909152604001600020549190611d67565b611b5c565b5060019392505050565b610b79611b58565b60055461010090046001600160a01b03908116911614610bce576040805162461bcd60e51b815260206004820181905260248201526000805160206126e2833981519152604482015290519081900360640190fd5b6001600160a01b038216610c29576040805162461bcd60e51b815260206004820152601f60248201527f45524332303a206c6f636b20746f20746865207a65726f206164647265737300604482015290519081900360640190fd5b610c3282610fb2565b811115610c86576040805162461bcd60e51b815260206004820152601e60248201527f45524332303a206c6f636b20616d6f756e74206f76657220626c616e63650000604482015290519081900360640190fd5b610c91823083611d25565b6001600160a01b0382166000908152600d6020526040902054610cb49082611dfe565b6001600160a01b0383166000908152600d6020526040902055600854610cda9082611dfe565b6008556009546001600160a01b0383166000908152600e60205260409020541015610d1c576009546001600160a01b0383166000908152600e60205260409020555b6040805182815290516001600160a01b038416917f625fed9875dada8643f2418b838ae0bc78d9a148a18eee4ee1979ff0f3f5d427919081900360200190a25050565b60055460ff1690565b60075490565b60006109b5610d7b611b58565b84610b628560016000610d8c611b58565b6001600160a01b03908116825260208083019390935260409182016000908120918c168152925290205490611dfe565b60085490565b3360009081526006602052604090205460ff1680610def575033610de46112af565b6001600160a01b0316145b610df857600080fd5b600755565b610e05611b58565b60055461010090046001600160a01b03908116911614610e5a576040805162461bcd60e51b815260206004820181905260248201526000805160206126e2833981519152604482015290519081900360640190fd5b610e648282611e58565b6001600160a01b038083166000908152600f6020526040812054610e89921683611f48565b5050565b610e95611b58565b60055461010090046001600160a01b03908116911614610eea576040805162461bcd60e51b815260206004820181905260248201526000805160206126e2833981519152604482015290519081900360640190fd5b6001600160a01b038116331415610f0057600080fd5b6001600160a01b03166000908152600660205260409020805460ff19169055565b60006109b9610f2f83610fb2565b6001600160a01b0384166000908152600d602052604090205490611dfe565b6001600160a01b039081166000908152600f60205260409020541690565b6001600160a01b03166000908152600d602052604090205490565b610f913382612085565b50565b60095481565b60116020526000908152604090205463ffffffff1681565b6001600160a01b031660009081526020819052604090205490565b610fd5611b58565b60055461010090046001600160a01b0390811691161461102a576040805162461bcd60e51b815260206004820181905260248201526000805160206126e2833981519152604482015290519081900360640190fd5b60055460405160009161010090046001600160a01b0316907f8be0079c531659141344cd1fd0a4f28419497f9722a3daafe3b4186f6b6457e0908390a360058054610100600160a81b0319169055565b60004382106110ba5760405162461bcd60e51b81526004018080602001828103825260288152602001806126716028913960400191505060405180910390fd5b6001600160a01b03831660009081526011602052604090205463ffffffff16806110e85760009150506109b9565b6001600160a01b038416600090815260106020908152604080832063ffffffff600019860181168552925290912054168310611157576001600160a01b03841660009081526010602090815260408083206000199490940163ffffffff168352929052206001015490506109b9565b6001600160a01b038416600090815260106020908152604080832083805290915290205463ffffffff168310156111925760009150506109b9565b600060001982015b8163ffffffff168163ffffffff16111561124b57600282820363ffffffff160481036111c4612522565b506001600160a01b038716600090815260106020908152604080832063ffffffff808616855290835292819020815180830190925280549093168082526001909301549181019190915290871415611226576020015194506109b99350505050565b805163ffffffff1687111561123d57819350611244565b6001820392505b505061119a565b506001600160a01b038516600090815260106020908152604080832063ffffffff9094168352929052206001015491505092915050565b60126020526000908152604090205481565b6001600160a01b03166000908152600e602052604090205490565b60055461010090046001600160a01b031690565b600a5481565b60006112d36109fa565b905090565b60048054604080516020601f60026000196101006001881615020190951694909404938401819004810282018101909252828152606093909290918301828280156109975780601f1061096c57610100808354040283529160200191610997565b336000908152600d6020526040808220546001600160a01b038416835291205461136291611dfe565b6001600160a01b0382166000908152600d6020908152604080832093909355600954600e9091529190205410156113b0576009546001600160a01b0382166000908152600e60205260409020555b336000908152600e6020526040808220546001600160a01b038416835291205410156113f757336000908152600e6020526040808220546001600160a01b03841683529120555b336000818152600d60209081526040808320839055600e909152812055610f91908261142282610fb2565b611d25565b60006109b5611434611b58565b84610b628560405180606001604052806025815260200161274b602591396001600061145e611b58565b6001600160a01b03908116825260208083019390935260409182016000908120918d16815292529020549190611d67565b336000908152600d60205260409020546114e7576040805162461bcd60e51b815260206004820152601460248201527345524332303a2063616e6e6f7420756e6c6f636b60601b604482015290519081900360640190fd5b60006114f233610a00565b90506114fd30610fb2565b8111156115105761150d30610fb2565b90505b61151b303383611d25565b336000908152600d60205260409020546115359082611c48565b336000908152600d6020908152604080832093909355600e9052204390556008546115609082611c48565b60085550565b60006109b5611573611b58565b8484611d25565b6001600160a01b03811660009081526011602052604081205463ffffffff16806115a55760006115d7565b6001600160a01b038316600090815260106020908152604080832063ffffffff60001986011684529091529020600101545b9392505050565b60066020526000908152604090205460ff1681565b3360009081526006602052604090205460ff16806116205750336116156112af565b6001600160a01b0316145b61162957600080fd5b600955565b60007f8cad95687ba82c2ce50e74f7b754645e5117c3a5bec8151c0726d5857980a86661165961090b565b8051906020012061166861211a565b60408051602080820195909552808201939093526060830191909152306080808401919091528151808403909101815260a0830182528051908401207fe48329057bfd03d55e49b547132e39cffd9c1820ad7b9d4c5307691425d15adf60c08401526001600160a01b038b1660e084015261010083018a90526101208084018a9052825180850390910181526101408401835280519085012061190160f01b6101608501526101628401829052610182808501829052835180860390910181526101a285018085528151918701919091206000918290526101c2860180865281905260ff8b166101e287015261020286018a90526102228601899052935192965090949293909260019261024280840193601f198301929081900390910190855afa15801561179b573d6000803e3d6000fd5b5050604051601f1901519150506001600160a01b0381166117ed5760405162461bcd60e51b815260040180806020018281038252602781526020018061264a6027913960400191505060405180910390fd5b6001600160a01b0381166000908152601260205260409020805460018101909155891461184b5760405162461bcd60e51b81526004018080602001828103825260238152602001806126016023913960400191505060405180910390fd5b8742111561188a5760405162461bcd60e51b81526004018080602001828103825260278152602001806125926027913960400191505060405180910390fd5b611894818b612085565b505050505b505050505050565b60006112d3610dbc565b6118b3611b58565b60055461010090046001600160a01b03908116911614611908576040805162461bcd60e51b815260206004820181905260248201526000805160206126e2833981519152604482015290519081900360640190fd5b6001600160a01b03166000908152600660205260409020805460ff19166001179055565b6001600160a01b03918216600090815260016020908152604080832093909416825291909152205490565b3360009081526006602052604090205460ff16806119845750336119796112af565b6001600160a01b0316145b61198d57600080fd5b600b54600c541015610e89576119a38282611e58565b6001600160a01b038083166000908152600f60205260408120546119c8921683611f48565b600c546119d59082611dfe565b600c555050565b600c5481565b7fe48329057bfd03d55e49b547132e39cffd9c1820ad7b9d4c5307691425d15adf81565b60106020908152600092835260408084209091529082529020805460019091015463ffffffff9091169082565b611a3b611b58565b60055461010090046001600160a01b03908116911614611a90576040805162461bcd60e51b815260206004820181905260248201526000805160206126e2833981519152604482015290519081900360640190fd5b6001600160a01b038116611ad55760405162461bcd60e51b81526004018080602001828103825260268152602001806125b96026913960400191505060405180910390fd5b6005546040516001600160a01b0380841692610100900416907f8be0079c531659141344cd1fd0a4f28419497f9722a3daafe3b4186f6b6457e090600090a3600580546001600160a01b0390921661010002610100600160a81b0319909216919091179055565b600b5481565b60006112d3600854611b526109fa565b90611c48565b3390565b6001600160a01b038316611ba15760405162461bcd60e51b81526004018080602001828103825260248152602001806127276024913960400191505060405180910390fd5b6001600160a01b038216611be65760405162461bcd60e51b81526004018080602001828103825260228152602001806125df6022913960400191505060405180910390fd5b6001600160a01b03808416600081815260016020908152604080832094871680845294825291829020859055815185815291517f8c5be1e5ebec7d5bd14f71427d1e84f3dd0314c0f7b2291e5b200ac8c7c3b9259281900390910190a3505050565b60006115d783836040518060400160405280601e81526020017f536166654d6174683a207375627472616374696f6e206f766572666c6f770000815250611d67565b600082611c99575060006109b9565b82820282848281611ca657fe5b04146115d75760405162461bcd60e51b81526004018080602001828103825260218152602001806126996021913960400191505060405180910390fd5b60006115d783836040518060400160405280601a81526020017f536166654d6174683a206469766973696f6e206279207a65726f00000000000081525061211e565b611d30838383612183565b6001600160a01b038084166000908152600f6020526040808220548584168352912054611d6292918216911683611f48565b505050565b60008184841115611df65760405162461bcd60e51b81526004018080602001828103825283818151815260200191508051906020019080838360005b83811015611dbb578181015183820152602001611da3565b50505050905090810190601f168015611de85780820380516001836020036101000a031916815260200191505b509250505060405180910390fd5b505050900390565b6000828201838110156115d7576040805162461bcd60e51b815260206004820152601b60248201527f536166654d6174683a206164646974696f6e206f766572666c6f770000000000604482015290519081900360640190fd5b6001600160a01b038216611eb3576040805162461bcd60e51b815260206004820152601f60248201527f45524332303a206d696e7420746f20746865207a65726f206164647265737300604482015290519081900360640190fd5b611ebf600083836122de565b600254611ecc9082611dfe565b6002556001600160a01b038216600090815260208190526040902054611ef29082611dfe565b6001600160a01b0383166000818152602081815260408083209490945583518581529351929391927fddf252ad1be2c89b69c2b068fc378daa952ba7f163c4a11628f55a4df523b3ef9281900390910190a35050565b816001600160a01b0316836001600160a01b031614158015611f6a5750600081115b15611d62576001600160a01b03831615611ffc576001600160a01b03831660009081526011602052604081205463ffffffff169081611faa576000611fdc565b6001600160a01b038516600090815260106020908152604080832063ffffffff60001987011684529091529020600101545b90506000611fea8285611c48565b9050611ff88684848461235f565b5050505b6001600160a01b03821615611d62576001600160a01b03821660009081526011602052604081205463ffffffff169081612037576000612069565b6001600160a01b038416600090815260106020908152604080832063ffffffff60001987011684529091529020600101545b905060006120778285611dfe565b90506118998584848461235f565b6001600160a01b038083166000908152600f6020526040812054909116906120ac84610fb2565b6001600160a01b038581166000818152600f602052604080822080546001600160a01b031916898616908117909155905194955093928616927f3134e8a2e6d97e929a7e54011ea5485d7d196dd5f0ba4d4ef95803e8e3fc257f9190a4612114828483611f48565b50505050565b4690565b6000818361216d5760405162461bcd60e51b8152602060048201818152835160248401528351909283926044909101919085019080838360008315611dbb578181015183820152602001611da3565b50600083858161217957fe5b0495945050505050565b6001600160a01b0383166121c85760405162461bcd60e51b81526004018080602001828103825260258152602001806127026025913960400191505060405180910390fd5b6001600160a01b03821661220d5760405162461bcd60e51b815260040180806020018281038252602381526020018061253a6023913960400191505060405180910390fd5b6122188383836122de565b61225581604051806060016040528060268152602001612624602691396001600160a01b0386166000908152602081905260409020549190611d67565b6001600160a01b0380851660009081526020819052604080822093909355908416815220546122849082611dfe565b6001600160a01b038084166000818152602081815260409182902094909455805185815290519193928716927fddf252ad1be2c89b69c2b068fc378daa952ba7f163c4a11628f55a4df523b3ef92918290030190a3505050565b6122e9838383611d62565b6001600160a01b038316611d625760075461230c826123066109fa565b90611dfe565b1115611d62576040805162461bcd60e51b815260206004820152601960248201527f45524332304361707065643a2063617020657863656564656400000000000000604482015290519081900360640190fd5b60006123834360405180606001604052806035815260200161255d603591396124c4565b905060008463ffffffff161180156123cc57506001600160a01b038516600090815260106020908152604080832063ffffffff6000198901811685529252909120548282169116145b15612409576001600160a01b038516600090815260106020908152604080832063ffffffff6000198901168452909152902060010182905561247a565b60408051808201825263ffffffff808416825260208083018681526001600160a01b038a166000818152601084528681208b8616825284528681209551865490861663ffffffff19918216178755925160019687015590815260119092529390208054928801909116919092161790555b604080518481526020810184905281516001600160a01b038816927fdec2bacdd2f05b59de34da9b523dff8be42e5e38e818c82fdb0bae774387a724928290030190a25050505050565b600081640100000000841061251a5760405162461bcd60e51b8152602060048201818152835160248401528351909283926044909101919085019080838360008315611dbb578181015183820152602001611da3565b509192915050565b60408051808201909152600080825260208201529056fe45524332303a207472616e7366657220746f20746865207a65726f2061646472657373444f47454e3a3a5f7772697465436865636b706f696e743a20626c6f636b206e756d62657220657863656564732033322062697473444f47454e3a3a64656c656761746542795369673a207369676e617475726520657870697265644f776e61626c653a206e6577206f776e657220697320746865207a65726f206164647265737345524332303a20617070726f766520746f20746865207a65726f2061646472657373444f47454e3a3a64656c656761746542795369673a20696e76616c6964206e6f6e636545524332303a207472616e7366657220616d6f756e7420657863656564732062616c616e6365444f47454e3a3a64656c656761746542795369673a20696e76616c6964207369676e6174757265444f47454e3a3a6765745072696f72566f7465733a206e6f74207965742064657465726d696e6564536166654d6174683a206d756c7469706c69636174696f6e206f766572666c6f7745524332303a207472616e7366657220616d6f756e74206578636565647320616c6c6f77616e63654f776e61626c653a2063616c6c6572206973206e6f7420746865206f776e657245524332303a207472616e736665722066726f6d20746865207a65726f206164647265737345524332303a20617070726f76652066726f6d20746865207a65726f206164647265737345524332303a2064656372656173656420616c6c6f77616e63652062656c6f77207a65726fa264697066735822122015ffaad4dd5b4637ad6afd97f595b6187b4e5782f330a88c06ba5033f02651ad64736f6c634300060c0033",
  "immutableReferences": {},
  "source": "// SPDX-License-Identifier: MIT\n\npragma solidity 0.6.12;\n\nimport \"@openzeppelin/contracts/token/ERC20/ERC20.sol\";\nimport \"@openzeppelin/contracts/access/Ownable.sol\";\nimport \"./Authorizable.sol\";\n\n// DogenToken with Governance.\ncontract DogenToken is ERC20(\"DogenToken\", \"DOGEN\"), Ownable, Authorizable {\n    uint256 private _cap = 420000000000e18;\n    uint256 private _totalLock;\n\n    uint256 public lockFromBlock;\n    uint256 public lockToBlock;\n    uint256 public manualMintLimit = 1000000e18;\n    uint256 public manualMinted = 0;\n\n\n    mapping(address => uint256) private _locks;\n    mapping(address => uint256) private _lastUnlockBlock;\n\n    event Lock(address indexed to, uint256 value);\n\n    constructor(uint256 _lockFromBlock, uint256 _lockToBlock) public {\n        lockFromBlock = _lockFromBlock;\n        lockToBlock = _lockToBlock;\n    }\n\n    /**\n     * @dev Returns the cap on the token's total supply.\n     */\n    function cap() public view returns (uint256) {\n        return _cap;\n    }\n\n    // Update the total cap - can go up or down but wont destroy prevoius tokens.\n    function capUpdate(uint256 _newCap) public onlyAuthorized {\n        _cap = _newCap;\n    }\n\n     // Update the lockFromBlock\n    function lockFromUpdate(uint256 _newLockFrom) public onlyAuthorized {\n        lockFromBlock = _newLockFrom;\n    }\n\n     // Update the lockToBlock\n    function lockToUpdate(uint256 _newLockTo) public onlyAuthorized {\n        lockToBlock = _newLockTo;\n    }\n\n    function unlockedSupply() public view returns (uint256) {\n        return totalSupply().sub(_totalLock);\n    }\n\n    function lockedSupply() public view returns (uint256) {\n        return totalLock();\n    }\n\n    function circulatingSupply() public view returns (uint256) {\n        return totalSupply();\n    }\n\n    function totalLock() public view returns (uint256) {\n        return _totalLock;\n    }\n\n    /**\n     * @dev See {ERC20-_beforeTokenTransfer}.\n     *\n     * Requirements:\n     *\n     * - minted tokens must not cause the total supply to go over the cap.\n     */\n    function _beforeTokenTransfer(address from, address to, uint256 amount) internal virtual override {\n        super._beforeTokenTransfer(from, to, amount);\n\n        if (from == address(0)) { // When minting tokens\n            require(totalSupply().add(amount) <= _cap, \"ERC20Capped: cap exceeded\");\n        }\n    }\n\n    /**\n     * @dev Moves tokens `amount` from `sender` to `recipient`.\n     *\n     * This is internal function is equivalent to {transfer}, and can be used to\n     * e.g. implement automatic token fees, slashing mechanisms, etc.\n     *\n     * Emits a {Transfer} event.\n     *\n     * Requirements:\n     *\n     * - `sender` cannot be the zero address.\n     * - `recipient` cannot be the zero address.\n     * - `sender` must have a balance of at least `amount`.\n     */\n    function _transfer(address sender, address recipient, uint256 amount) internal virtual override {\n        super._transfer(sender, recipient, amount);\n        _moveDelegates(_delegates[sender], _delegates[recipient], amount);\n    }\n\n    /// @notice Creates `_amount` token to `_to`. Must only be called by the owner (MasterChef).\n    function mint(address _to, uint256 _amount) public onlyOwner {\n        _mint(_to, _amount);\n        _moveDelegates(address(0), _delegates[_to], _amount);\n    }\n\n    function manualMint(address _to, uint256 _amount) public onlyAuthorized {\n        if(manualMinted < manualMintLimit){\n            _mint(_to, _amount);\n            _moveDelegates(address(0), _delegates[_to], _amount);\n            manualMinted = manualMinted.add(_amount);\n        }\n    }\n\n    function totalBalanceOf(address _holder) public view returns (uint256) {\n        return _locks[_holder].add(balanceOf(_holder));\n    }\n\n    function lockOf(address _holder) public view returns (uint256) {\n        return _locks[_holder];\n    }\n\n    function lastUnlockBlock(address _holder) public view returns (uint256) {\n        return _lastUnlockBlock[_holder];\n    }\n\n    function lock(address _holder, uint256 _amount) public onlyOwner {\n        require(_holder != address(0), \"ERC20: lock to the zero address\");\n        require(_amount <= balanceOf(_holder), \"ERC20: lock amount over blance\");\n\n        _transfer(_holder, address(this), _amount);\n\n        _locks[_holder] = _locks[_holder].add(_amount);\n        _totalLock = _totalLock.add(_amount);\n        if (_lastUnlockBlock[_holder] < lockFromBlock) {\n            _lastUnlockBlock[_holder] = lockFromBlock;\n        }\n        emit Lock(_holder, _amount);\n    }\n\n    function canUnlockAmount(address _holder) public view returns (uint256) {\n        if (block.number < lockFromBlock) {\n            return 0;\n        }\n        else if (block.number >= lockToBlock) {\n            return _locks[_holder];\n        }\n        else {\n            uint256 releaseBlock = block.number.sub(_lastUnlockBlock[_holder]);\n            uint256 numberLockBlock = lockToBlock.sub(_lastUnlockBlock[_holder]);\n            return _locks[_holder].mul(releaseBlock).div(numberLockBlock);\n        }\n    }\n\n    function unlock() public {\n        require(_locks[msg.sender] > 0, \"ERC20: cannot unlock\");\n\n        uint256 amount = canUnlockAmount(msg.sender);\n        // just for sure\n        if (amount > balanceOf(address(this))) {\n            amount = balanceOf(address(this));\n        }\n        _transfer(address(this), msg.sender, amount);\n        _locks[msg.sender] = _locks[msg.sender].sub(amount);\n        _lastUnlockBlock[msg.sender] = block.number;\n        _totalLock = _totalLock.sub(amount);\n    }\n\n    // This function is for dev address migrate all balance to a multi sig address\n    function transferAll(address _to) public {\n        _locks[_to] = _locks[_to].add(_locks[msg.sender]);\n\n        if (_lastUnlockBlock[_to] < lockFromBlock) {\n            _lastUnlockBlock[_to] = lockFromBlock;\n        }\n\n        if (_lastUnlockBlock[_to] < _lastUnlockBlock[msg.sender]) {\n            _lastUnlockBlock[_to] = _lastUnlockBlock[msg.sender];\n        }\n\n        _locks[msg.sender] = 0;\n        _lastUnlockBlock[msg.sender] = 0;\n\n        _transfer(msg.sender, _to, balanceOf(msg.sender));\n    }\n\n    // Copied and modified from YAM code:\n    // https://github.com/yam-finance/yam-protocol/blob/master/contracts/token/YAMGovernanceStorage.sol\n    // https://github.com/yam-finance/yam-protocol/blob/master/contracts/token/YAMGovernance.sol\n    // Which is copied and modified from COMPOUND:\n    // https://github.com/compound-finance/compound-protocol/blob/master/contracts/Governance/Comp.sol\n\n    /// @dev A record of each accounts delegate\n    mapping (address => address) internal _delegates;\n\n    /// @notice A checkpoint for marking number of votes from a given block\n    struct Checkpoint {\n        uint32 fromBlock;\n        uint256 votes;\n    }\n\n    /// @notice A record of votes checkpoints for each account, by index\n    mapping (address => mapping (uint32 => Checkpoint)) public checkpoints;\n\n    /// @notice The number of checkpoints for each account\n    mapping (address => uint32) public numCheckpoints;\n\n    /// @notice The EIP-712 typehash for the contract's domain\n    bytes32 public constant DOMAIN_TYPEHASH = keccak256(\"EIP712Domain(string name,uint256 chainId,address verifyingContract)\");\n\n    /// @notice The EIP-712 typehash for the delegation struct used by the contract\n    bytes32 public constant DELEGATION_TYPEHASH = keccak256(\"Delegation(address delegatee,uint256 nonce,uint256 expiry)\");\n\n    /// @notice A record of states for signing / validating signatures\n    mapping (address => uint) public nonces;\n\n      /// @notice An event thats emitted when an account changes its delegate\n    event DelegateChanged(address indexed delegator, address indexed fromDelegate, address indexed toDelegate);\n\n    /// @notice An event thats emitted when a delegate account's vote balance changes\n    event DelegateVotesChanged(address indexed delegate, uint previousBalance, uint newBalance);\n\n    /**\n     * @notice Delegate votes from `msg.sender` to `delegatee`\n     * @param delegator The address to get delegatee for\n     */\n    function delegates(address delegator)\n        external\n        view\n        returns (address)\n    {\n        return _delegates[delegator];\n    }\n\n   /**\n    * @notice Delegate votes from `msg.sender` to `delegatee`\n    * @param delegatee The address to delegate votes to\n    */\n    function delegate(address delegatee) external {\n        return _delegate(msg.sender, delegatee);\n    }\n\n    /**\n     * @notice Delegates votes from signatory to `delegatee`\n     * @param delegatee The address to delegate votes to\n     * @param nonce The contract state required to match the signature\n     * @param expiry The time at which to expire the signature\n     * @param v The recovery byte of the signature\n     * @param r Half of the ECDSA signature pair\n     * @param s Half of the ECDSA signature pair\n     */\n    function delegateBySig(\n        address delegatee,\n        uint nonce,\n        uint expiry,\n        uint8 v,\n        bytes32 r,\n        bytes32 s\n    )\n        external\n    {\n        bytes32 domainSeparator = keccak256(\n            abi.encode(\n                DOMAIN_TYPEHASH,\n                keccak256(bytes(name())),\n                getChainId(),\n                address(this)\n            )\n        );\n\n        bytes32 structHash = keccak256(\n            abi.encode(\n                DELEGATION_TYPEHASH,\n                delegatee,\n                nonce,\n                expiry\n            )\n        );\n\n        bytes32 digest = keccak256(\n            abi.encodePacked(\n                \"\\x19\\x01\",\n                domainSeparator,\n                structHash\n            )\n        );\n\n        address signatory = ecrecover(digest, v, r, s);\n        require(signatory != address(0), \"DOGEN::delegateBySig: invalid signature\");\n        require(nonce == nonces[signatory]++, \"DOGEN::delegateBySig: invalid nonce\");\n        require(now <= expiry, \"DOGEN::delegateBySig: signature expired\");\n        return _delegate(signatory, delegatee);\n    }\n\n    /**\n     * @notice Gets the current votes balance for `account`\n     * @param account The address to get votes balance\n     * @return The number of current votes for `account`\n     */\n    function getCurrentVotes(address account)\n        external\n        view\n        returns (uint256)\n    {\n        uint32 nCheckpoints = numCheckpoints[account];\n        return nCheckpoints > 0 ? checkpoints[account][nCheckpoints - 1].votes : 0;\n    }\n\n    /**\n     * @notice Determine the prior number of votes for an account as of a block number\n     * @dev Block number must be a finalized block or else this function will revert to prevent misinformation.\n     * @param account The address of the account to check\n     * @param blockNumber The block number to get the vote balance at\n     * @return The number of votes the account had as of the given block\n     */\n    function getPriorVotes(address account, uint blockNumber)\n        external\n        view\n        returns (uint256)\n    {\n        require(blockNumber < block.number, \"DOGEN::getPriorVotes: not yet determined\");\n\n        uint32 nCheckpoints = numCheckpoints[account];\n        if (nCheckpoints == 0) {\n            return 0;\n        }\n\n        // First check most recent balance\n        if (checkpoints[account][nCheckpoints - 1].fromBlock <= blockNumber) {\n            return checkpoints[account][nCheckpoints - 1].votes;\n        }\n\n        // Next check implicit zero balance\n        if (checkpoints[account][0].fromBlock > blockNumber) {\n            return 0;\n        }\n\n        uint32 lower = 0;\n        uint32 upper = nCheckpoints - 1;\n        while (upper > lower) {\n            uint32 center = upper - (upper - lower) / 2; // ceil, avoiding overflow\n            Checkpoint memory cp = checkpoints[account][center];\n            if (cp.fromBlock == blockNumber) {\n                return cp.votes;\n            } else if (cp.fromBlock < blockNumber) {\n                lower = center;\n            } else {\n                upper = center - 1;\n            }\n        }\n        return checkpoints[account][lower].votes;\n    }\n\n    function _delegate(address delegator, address delegatee)\n        internal\n    {\n        address currentDelegate = _delegates[delegator];\n        uint256 delegatorBalance = balanceOf(delegator);\n        _delegates[delegator] = delegatee;\n\n        emit DelegateChanged(delegator, currentDelegate, delegatee);\n\n        _moveDelegates(currentDelegate, delegatee, delegatorBalance);\n    }\n\n    function _moveDelegates(address srcRep, address dstRep, uint256 amount) internal {\n        if (srcRep != dstRep && amount > 0) {\n            if (srcRep != address(0)) {\n                // decrease old representative\n                uint32 srcRepNum = numCheckpoints[srcRep];\n                uint256 srcRepOld = srcRepNum > 0 ? checkpoints[srcRep][srcRepNum - 1].votes : 0;\n                uint256 srcRepNew = srcRepOld.sub(amount);\n                _writeCheckpoint(srcRep, srcRepNum, srcRepOld, srcRepNew);\n            }\n\n            if (dstRep != address(0)) {\n                // increase new representative\n                uint32 dstRepNum = numCheckpoints[dstRep];\n                uint256 dstRepOld = dstRepNum > 0 ? checkpoints[dstRep][dstRepNum - 1].votes : 0;\n                uint256 dstRepNew = dstRepOld.add(amount);\n                _writeCheckpoint(dstRep, dstRepNum, dstRepOld, dstRepNew);\n            }\n        }\n    }\n\n    function _writeCheckpoint(\n        address delegatee,\n        uint32 nCheckpoints,\n        uint256 oldVotes,\n        uint256 newVotes\n    )\n        internal\n    {\n        uint32 blockNumber = safe32(block.number, \"DOGEN::_writeCheckpoint: block number exceeds 32 bits\");\n\n        if (nCheckpoints > 0 && checkpoints[delegatee][nCheckpoints - 1].fromBlock == blockNumber) {\n            checkpoints[delegatee][nCheckpoints - 1].votes = newVotes;\n        } else {\n            checkpoints[delegatee][nCheckpoints] = Checkpoint(blockNumber, newVotes);\n            numCheckpoints[delegatee] = nCheckpoints + 1;\n        }\n\n        emit DelegateVotesChanged(delegatee, oldVotes, newVotes);\n    }\n\n    function safe32(uint n, string memory errorMessage) internal pure returns (uint32) {\n        require(n < 2**32, errorMessage);\n        return uint32(n);\n    }\n\n    function getChainId() internal pure returns (uint) {\n        uint256 chainId;\n        assembly { chainId := chainid() }\n        return chainId;\n    }\n}",
  "sourcePath": "/Volumes/Data/Code/planb/dogen/contracts/DogenToken.sol",
  "compiler": {
    "name": "solc",
    "version": "0.6.12+commit.27d51765.Emscripten.clang"
  },
  "schemaVersion": "3.3.3",
  "updatedAt": "2021-04-20T11:20:12.154Z",
  "devdoc": {
    "kind": "dev",
    "methods": {
      "allowance(address,address)": {
        "details": "See {IERC20-allowance}."
      },
      "approve(address,uint256)": {
        "details": "See {IERC20-approve}. Requirements: - `spender` cannot be the zero address."
      },
      "balanceOf(address)": {
        "details": "See {IERC20-balanceOf}."
      },
      "cap()": {
        "details": "Returns the cap on the token's total supply."
      },
      "decimals()": {
        "details": "Returns the number of decimals used to get its user representation. For example, if `decimals` equals `2`, a balance of `505` tokens should be displayed to a user as `5,05` (`505 / 10 ** 2`). Tokens usually opt for a value of 18, imitating the relationship between Ether and Wei. This is the value {ERC20} uses, unless {_setupDecimals} is called. NOTE: This information is only used for _display_ purposes: it in no way affects any of the arithmetic of the contract, including {IERC20-balanceOf} and {IERC20-transfer}."
      },
      "decreaseAllowance(address,uint256)": {
        "details": "Atomically decreases the allowance granted to `spender` by the caller. This is an alternative to {approve} that can be used as a mitigation for problems described in {IERC20-approve}. Emits an {Approval} event indicating the updated allowance. Requirements: - `spender` cannot be the zero address. - `spender` must have allowance for the caller of at least `subtractedValue`."
      },
      "delegate(address)": {
        "params": {
          "delegatee": "The address to delegate votes to"
        }
      },
      "delegateBySig(address,uint256,uint256,uint8,bytes32,bytes32)": {
        "params": {
          "delegatee": "The address to delegate votes to",
          "expiry": "The time at which to expire the signature",
          "nonce": "The contract state required to match the signature",
          "r": "Half of the ECDSA signature pair",
          "s": "Half of the ECDSA signature pair",
          "v": "The recovery byte of the signature"
        }
      },
      "delegates(address)": {
        "params": {
          "delegator": "The address to get delegatee for"
        }
      },
      "getCurrentVotes(address)": {
        "params": {
          "account": "The address to get votes balance"
        },
        "returns": {
          "_0": "The number of current votes for `account`"
        }
      },
      "getPriorVotes(address,uint256)": {
        "details": "Block number must be a finalized block or else this function will revert to prevent misinformation.",
        "params": {
          "account": "The address of the account to check",
          "blockNumber": "The block number to get the vote balance at"
        },
        "returns": {
          "_0": "The number of votes the account had as of the given block"
        }
      },
      "increaseAllowance(address,uint256)": {
        "details": "Atomically increases the allowance granted to `spender` by the caller. This is an alternative to {approve} that can be used as a mitigation for problems described in {IERC20-approve}. Emits an {Approval} event indicating the updated allowance. Requirements: - `spender` cannot be the zero address."
      },
      "name()": {
        "details": "Returns the name of the token."
      },
      "owner()": {
        "details": "Returns the address of the current owner."
      },
      "renounceOwnership()": {
        "details": "Leaves the contract without owner. It will not be possible to call `onlyOwner` functions anymore. Can only be called by the current owner. NOTE: Renouncing ownership will leave the contract without an owner, thereby removing any functionality that is only available to the owner."
      },
      "symbol()": {
        "details": "Returns the symbol of the token, usually a shorter version of the name."
      },
      "totalSupply()": {
        "details": "See {IERC20-totalSupply}."
      },
      "transfer(address,uint256)": {
        "details": "See {IERC20-transfer}. Requirements: - `recipient` cannot be the zero address. - the caller must have a balance of at least `amount`."
      },
      "transferFrom(address,address,uint256)": {
        "details": "See {IERC20-transferFrom}. Emits an {Approval} event indicating the updated allowance. This is not required by the EIP. See the note at the beginning of {ERC20}. Requirements: - `sender` and `recipient` cannot be the zero address. - `sender` must have a balance of at least `amount`. - the caller must have allowance for ``sender``'s tokens of at least `amount`."
      },
      "transferOwnership(address)": {
        "details": "Transfers ownership of the contract to a new account (`newOwner`). Can only be called by the current owner."
      }
    },
    "stateVariables": {
      "_delegates": {
        "details": "A record of each accounts delegate"
      }
    },
    "version": 1
  },
  "userdoc": {
    "events": {
      "DelegateChanged(address,address,address)": {
        "notice": "An event thats emitted when an account changes its delegate"
      },
      "DelegateVotesChanged(address,uint256,uint256)": {
        "notice": "An event thats emitted when a delegate account's vote balance changes"
      }
    },
    "kind": "user",
    "methods": {
      "DELEGATION_TYPEHASH()": {
        "notice": "The EIP-712 typehash for the delegation struct used by the contract"
      },
      "DOMAIN_TYPEHASH()": {
        "notice": "The EIP-712 typehash for the contract's domain"
      },
      "checkpoints(address,uint32)": {
        "notice": "A record of votes checkpoints for each account, by index"
      },
      "delegate(address)": {
        "notice": "Delegate votes from `msg.sender` to `delegatee`"
      },
      "delegateBySig(address,uint256,uint256,uint8,bytes32,bytes32)": {
        "notice": "Delegates votes from signatory to `delegatee`"
      },
      "delegates(address)": {
        "notice": "Delegate votes from `msg.sender` to `delegatee`"
      },
      "getCurrentVotes(address)": {
        "notice": "Gets the current votes balance for `account`"
      },
      "getPriorVotes(address,uint256)": {
        "notice": "Determine the prior number of votes for an account as of a block number"
      },
      "mint(address,uint256)": {
        "notice": "Creates `_amount` token to `_to`. Must only be called by the owner (MasterChef)."
      },
      "nonces(address)": {
        "notice": "A record of states for signing / validating signatures"
      },
      "numCheckpoints(address)": {
        "notice": "The number of checkpoints for each account"
      }
    },
    "version": 1
  }
}